:020000002100DD
:100030004D4F4E0054554500574544005448550017
:0C004000465249005341540053554E00F5
:1001000080FED2B6D2B7C2B6227F08C2B73392B64B
:100110003167D2B7316700DFF2C2B722316AD2B697
:10012000D2B7A2B60000227F08D2B7A2B633316799
:1001300000C2B7316700DFF1D2B722C2B6316AD24E
:10014000B72200316AC2B73162D2B6D2B7220000FC
:10015000C2B7C2B63162D2B7D2B6220000000000E8
:10016000002200000000220000222279A6315BD983
:10017000FC00000022316BDAFC22D282C281C280F4
:10018000F5903167C2827A02317522D282C281D261
:1001900080F5903167C2827A023175227A0F31750B
:1001A0007430317A7A0531757430317A316A74304D
:1001B000317A7A0A31757438317A7408317A740177
:1001C000317A7406317A740C317A227401317A22D0
:1001D000E8B40005748029800374C029317A223183
:1001E0008B22E4C0E0936007318BD0E00480F422DE
:0801F000C0E074D031023109B6
:1001F800311CD0E03109311CE5F03109311C314E98
:1002080022C0E074D031023109311CD0E03109310B
:100218001C314E74D0440131023109311C3127316F
:1002280042314E22B4000474108010B401047411D9
:100238008009B40204741280027413F5F074073153
:10024800F0225008740751094410800674075109B8
:1002580054EFF5F0740731F02274005109F530229B
:1002680074015109F5312274025109F532227403DF
:100278005109F5332274045109F5342274055109E2
:10028800F5352274065109F53622F5F0740031F07F
:1002980022F5F0740131F022F5F0740231F022F504
:1002A800F0740331F022F5F0740431F022F5F074A3
:1002B8000531F022F5F0740631F022FD540F7E303E
:1002C8004EFEEDC4540F7D304DFD22C0E0F5F054D4
:1002D8000FD0E0C4540FF8E5F075F00AA428227591
:1002E800F00A84C454F045F02292F0C0E0A802510C
:1002F80009F540A2F0505FE54020E64E541FC0E0EB
:1003080051D3F9D0E0B9000C740C51E74440F540E2
:10031800C2F1619EB90C0E740C51E744404420F5BB
:1003280040D2F18071C3E9940C40122400240C944B
:100338000C51E744404420F540D2F18059E951E797
:10034800444054DFF540C2F1804C54206004D2F19F
:100358008044C2F18040E54030E635541FC0E0518A
:10036800D3F9D0E0E54030E50DE9B40C04740C8015
:100378000DE9240C8008E9B40C047400545F51E7BB
:1003880054BFF540C2F1800ED0E054BFF540C2F131
:1003980054BFF540C2F17802E54031F0D0E0225177
:1003A8006FE53051C3ED318BEE318B743A318B22CE
:1003B8005168E53151C3ED318BEE318B743A318B95
:1003C800225192E53251C3ED318BEE318B743A31C3
:1003D8008B225176E5331475F004A4900030258201
:1003E800F582E43583F583517D5184518BE5335192
:1003F800C3ED318BEE318B742F318BE53451C3ED66
:10040800318BEE318B742F318BE53551C3ED318B48
:08041800EE318B742F318B22B1
:100420007800790031D071DA71EF7801780031D03D
:0704300071A771B871C92228
:00000001FF
