:020000002100DD
:0300030071563201
:100030004D4F4E0054554500574544005448550017
:0C004000465249005341540053554E00F5
:100100007400513E31AC7156D288D2A8D2AF80FE75
:10011000D2B6D2B7C2B6227F08C2B73392B6317711
:10012000D2B7317700DFF2C2B722317AD2B6D2B776
:10013000A2B60000227F09C3E4D2B7A2B63331775A
:1001400000C2B7317700DFF1D2B722C2B6317AD21E
:10015000B72200317AC2B73172D2B6D2B7220000CC
:10016000C2B7C2B63172D2B7D2B6220000000000C8
:10017000002200000000220000222279A6316BD963
:10018000FC00000022317BDAFC22D282C281C280D4
:10019000F5903177C2827A02318522D282C281D231
:1001A00080F5903177C2827A023185227A0F3185CB
:1001B0007430318A7A0531857430318A317A7430FD
:1001C000318A7A0A31857438318A7408318A740127
:1001D000318A7406318A740C318A227401318A2280
:1001E000E8B40005748029800374C029318A223163
:0801F0009B22E4C0E0936007CC
:1001F800319BD0E00480F4D0E022C0E074D031100C
:100208003117312AD0E03117312AE5F03117312A78
:10021800315E22C0E074D031103117312AD0E0317C
:1002280017312A315E74D0440131103117312A3127
:10023800353152315E22B4000474108010B40104C8
:1002480074118009B40204741280027413F5F074F6
:100258000751022250087407511B44108006740786
:10026800511B54EFF5F074075102227400511BF52D
:1002780030227401511BF531227402511BF53222D0
:100288007403511BF533227404511BF53422740591
:10029800511BF535227406511BF53622F5F0740012
:1002A800510222F5F07401510222F5F07402510254
:1002B80022F5F07403510222F5F07404510222F57C
:1002C800F07405510222F5F074065102227B307C4D
:1002D80030C0E0540F4CFCD0E0C4540F4BFB22510B
:1002E80081E53251D5EB319BEC319B743A319B223D
:1002F800517AE53151D5EB319BEC319B743A319B06
:10030800225173E53051D5EB319BEC319B2251885A
:10031800E5331475F004A42430F58275830031F2B6
:1003280022518F5196519DE53451D5EB319BEC31DB
:100338009B742F319BE53551D5EB319BEC319B7488
:100348002F319BE53651D5EB319BEC319B22780060
:10035800790031E071297800790D31E07116780162
:0B036800790031E051E751F8710922E3
:00000001FF
